{
  "contractName": "LowbOracle",
  "abi": [
    {
      "inputs": [
        {
          "internalType": "address",
          "name": "_lowbTokenAddress",
          "type": "address"
        }
      ],
      "stateMutability": "nonpayable",
      "type": "constructor"
    },
    {
      "anonymous": false,
      "inputs": [
        {
          "indexed": false,
          "internalType": "uint256",
          "name": "amount",
          "type": "uint256"
        },
        {
          "indexed": true,
          "internalType": "address",
          "name": "to",
          "type": "address"
        },
        {
          "indexed": true,
          "internalType": "uint256",
          "name": "id",
          "type": "uint256"
        }
      ],
      "name": "DepositForEvent",
      "type": "event"
    },
    {
      "anonymous": false,
      "inputs": [
        {
          "indexed": false,
          "internalType": "uint256",
          "name": "amount",
          "type": "uint256"
        },
        {
          "indexed": true,
          "internalType": "address",
          "name": "to",
          "type": "address"
        },
        {
          "indexed": true,
          "internalType": "uint256",
          "name": "id",
          "type": "uint256"
        }
      ],
      "name": "ProcessWithdrawEvent",
      "type": "event"
    },
    {
      "anonymous": false,
      "inputs": [
        {
          "indexed": true,
          "internalType": "bytes32",
          "name": "role",
          "type": "bytes32"
        },
        {
          "indexed": true,
          "internalType": "bytes32",
          "name": "previousAdminRole",
          "type": "bytes32"
        },
        {
          "indexed": true,
          "internalType": "bytes32",
          "name": "newAdminRole",
          "type": "bytes32"
        }
      ],
      "name": "RoleAdminChanged",
      "type": "event"
    },
    {
      "anonymous": false,
      "inputs": [
        {
          "indexed": true,
          "internalType": "bytes32",
          "name": "role",
          "type": "bytes32"
        },
        {
          "indexed": true,
          "internalType": "address",
          "name": "account",
          "type": "address"
        },
        {
          "indexed": true,
          "internalType": "address",
          "name": "sender",
          "type": "address"
        }
      ],
      "name": "RoleGranted",
      "type": "event"
    },
    {
      "anonymous": false,
      "inputs": [
        {
          "indexed": true,
          "internalType": "bytes32",
          "name": "role",
          "type": "bytes32"
        },
        {
          "indexed": true,
          "internalType": "address",
          "name": "account",
          "type": "address"
        },
        {
          "indexed": true,
          "internalType": "address",
          "name": "sender",
          "type": "address"
        }
      ],
      "name": "RoleRevoked",
      "type": "event"
    },
    {
      "anonymous": false,
      "inputs": [
        {
          "indexed": false,
          "internalType": "uint256",
          "name": "amount",
          "type": "uint256"
        },
        {
          "indexed": true,
          "internalType": "address",
          "name": "to",
          "type": "address"
        },
        {
          "indexed": true,
          "internalType": "uint256",
          "name": "id",
          "type": "uint256"
        }
      ],
      "name": "WithdrawToEvent",
      "type": "event"
    },
    {
      "stateMutability": "payable",
      "type": "fallback",
      "payable": true
    },
    {
      "inputs": [],
      "name": "CHECKER_ROLE",
      "outputs": [
        {
          "internalType": "bytes32",
          "name": "",
          "type": "bytes32"
        }
      ],
      "stateMutability": "view",
      "type": "function",
      "constant": true
    },
    {
      "inputs": [],
      "name": "DEFAULT_ADMIN_ROLE",
      "outputs": [
        {
          "internalType": "bytes32",
          "name": "",
          "type": "bytes32"
        }
      ],
      "stateMutability": "view",
      "type": "function",
      "constant": true
    },
    {
      "inputs": [],
      "name": "SENDER_ROLE",
      "outputs": [
        {
          "internalType": "bytes32",
          "name": "",
          "type": "bytes32"
        }
      ],
      "stateMutability": "view",
      "type": "function",
      "constant": true
    },
    {
      "inputs": [],
      "name": "depositAmount",
      "outputs": [
        {
          "internalType": "uint256",
          "name": "",
          "type": "uint256"
        }
      ],
      "stateMutability": "view",
      "type": "function",
      "constant": true
    },
    {
      "inputs": [],
      "name": "depositId",
      "outputs": [
        {
          "internalType": "uint256",
          "name": "",
          "type": "uint256"
        }
      ],
      "stateMutability": "view",
      "type": "function",
      "constant": true
    },
    {
      "inputs": [],
      "name": "fees",
      "outputs": [
        {
          "internalType": "uint256",
          "name": "",
          "type": "uint256"
        }
      ],
      "stateMutability": "view",
      "type": "function",
      "constant": true
    },
    {
      "inputs": [],
      "name": "feesToWithdraw",
      "outputs": [
        {
          "internalType": "uint256",
          "name": "",
          "type": "uint256"
        }
      ],
      "stateMutability": "view",
      "type": "function",
      "constant": true
    },
    {
      "inputs": [
        {
          "internalType": "bytes32",
          "name": "role",
          "type": "bytes32"
        }
      ],
      "name": "getRoleAdmin",
      "outputs": [
        {
          "internalType": "bytes32",
          "name": "",
          "type": "bytes32"
        }
      ],
      "stateMutability": "view",
      "type": "function",
      "constant": true
    },
    {
      "inputs": [
        {
          "internalType": "bytes32",
          "name": "role",
          "type": "bytes32"
        },
        {
          "internalType": "address",
          "name": "account",
          "type": "address"
        }
      ],
      "name": "grantRole",
      "outputs": [],
      "stateMutability": "nonpayable",
      "type": "function"
    },
    {
      "inputs": [
        {
          "internalType": "bytes32",
          "name": "role",
          "type": "bytes32"
        },
        {
          "internalType": "address",
          "name": "account",
          "type": "address"
        }
      ],
      "name": "hasRole",
      "outputs": [
        {
          "internalType": "bool",
          "name": "",
          "type": "bool"
        }
      ],
      "stateMutability": "view",
      "type": "function",
      "constant": true
    },
    {
      "inputs": [
        {
          "internalType": "address",
          "name": "",
          "type": "address"
        }
      ],
      "name": "latestTransaction",
      "outputs": [
        {
          "internalType": "uint256",
          "name": "",
          "type": "uint256"
        }
      ],
      "stateMutability": "view",
      "type": "function",
      "constant": true
    },
    {
      "inputs": [],
      "name": "lowbTokenAddress",
      "outputs": [
        {
          "internalType": "address",
          "name": "",
          "type": "address"
        }
      ],
      "stateMutability": "view",
      "type": "function",
      "constant": true
    },
    {
      "inputs": [
        {
          "internalType": "bytes32",
          "name": "role",
          "type": "bytes32"
        },
        {
          "internalType": "address",
          "name": "account",
          "type": "address"
        }
      ],
      "name": "renounceRole",
      "outputs": [],
      "stateMutability": "nonpayable",
      "type": "function"
    },
    {
      "inputs": [
        {
          "internalType": "bytes32",
          "name": "role",
          "type": "bytes32"
        },
        {
          "internalType": "address",
          "name": "account",
          "type": "address"
        }
      ],
      "name": "revokeRole",
      "outputs": [],
      "stateMutability": "nonpayable",
      "type": "function"
    },
    {
      "inputs": [],
      "name": "rewards",
      "outputs": [
        {
          "internalType": "uint256",
          "name": "",
          "type": "uint256"
        }
      ],
      "stateMutability": "view",
      "type": "function",
      "constant": true
    },
    {
      "inputs": [
        {
          "internalType": "bytes4",
          "name": "interfaceId",
          "type": "bytes4"
        }
      ],
      "name": "supportsInterface",
      "outputs": [
        {
          "internalType": "bool",
          "name": "",
          "type": "bool"
        }
      ],
      "stateMutability": "view",
      "type": "function",
      "constant": true
    },
    {
      "inputs": [
        {
          "internalType": "uint256",
          "name": "",
          "type": "uint256"
        }
      ],
      "name": "transactions",
      "outputs": [
        {
          "internalType": "address",
          "name": "receiver",
          "type": "address"
        },
        {
          "internalType": "uint256",
          "name": "amount",
          "type": "uint256"
        },
        {
          "internalType": "uint256",
          "name": "confirmedBlock",
          "type": "uint256"
        }
      ],
      "stateMutability": "view",
      "type": "function",
      "constant": true
    },
    {
      "inputs": [],
      "name": "withdrawAmount",
      "outputs": [
        {
          "internalType": "uint256",
          "name": "",
          "type": "uint256"
        }
      ],
      "stateMutability": "view",
      "type": "function",
      "constant": true
    },
    {
      "inputs": [],
      "name": "withdrawId",
      "outputs": [
        {
          "internalType": "uint256",
          "name": "",
          "type": "uint256"
        }
      ],
      "stateMutability": "view",
      "type": "function",
      "constant": true
    },
    {
      "stateMutability": "payable",
      "type": "receive",
      "payable": true
    },
    {
      "inputs": [
        {
          "internalType": "uint256",
          "name": "_amount",
          "type": "uint256"
        },
        {
          "internalType": "address",
          "name": "_for",
          "type": "address"
        }
      ],
      "name": "depositFor",
      "outputs": [
        {
          "internalType": "uint256",
          "name": "",
          "type": "uint256"
        }
      ],
      "stateMutability": "nonpayable",
      "type": "function"
    },
    {
      "inputs": [
        {
          "internalType": "uint256",
          "name": "_amount",
          "type": "uint256"
        },
        {
          "internalType": "address",
          "name": "_to",
          "type": "address"
        },
        {
          "internalType": "uint256",
          "name": "_id",
          "type": "uint256"
        }
      ],
      "name": "processWithdraw",
      "outputs": [],
      "stateMutability": "nonpayable",
      "type": "function"
    },
    {
      "inputs": [
        {
          "internalType": "uint256",
          "name": "_amount",
          "type": "uint256"
        },
        {
          "internalType": "address payable",
          "name": "_to",
          "type": "address"
        },
        {
          "internalType": "uint256",
          "name": "_id",
          "type": "uint256"
        }
      ],
      "name": "withdrawTo",
      "outputs": [],
      "stateMutability": "nonpayable",
      "type": "function"
    },
    {
      "inputs": [
        {
          "internalType": "uint256",
          "name": "_fees",
          "type": "uint256"
        },
        {
          "internalType": "uint256",
          "name": "_rewards",
          "type": "uint256"
        }
      ],
      "name": "setFeesAndRewards",
      "outputs": [],
      "stateMutability": "nonpayable",
      "type": "function"
    },
    {
      "inputs": [
        {
          "internalType": "address",
          "name": "_tokenAddress",
          "type": "address"
        },
        {
          "internalType": "address payable",
          "name": "_to",
          "type": "address"
        }
      ],
      "name": "pullFunds",
      "outputs": [],
      "stateMutability": "nonpayable",
      "type": "function"
    }
  ],
  "bytecode": "0x60806040523480156200001157600080fd5b506040516200274738038062002747833981810160405281019062000037919062000224565b80600860006101000a81548173ffffffffffffffffffffffffffffffffffffffff021916908373ffffffffffffffffffffffffffffffffffffffff1602179055506200008d6000801b336200009460201b60201c565b506200029e565b620000a68282620000aa60201b60201c565b5050565b620000bc82826200019b60201b60201c565b6200019757600160008084815260200190815260200160002060000160008373ffffffffffffffffffffffffffffffffffffffff1673ffffffffffffffffffffffffffffffffffffffff16815260200190815260200160002060006101000a81548160ff0219169083151502179055506200013c6200020560201b60201c565b73ffffffffffffffffffffffffffffffffffffffff168173ffffffffffffffffffffffffffffffffffffffff16837f2f8788117e7eff1d82e926ec794901d17c78024a50270940304540a733656f0d60405160405180910390a45b5050565b600080600084815260200190815260200160002060000160008373ffffffffffffffffffffffffffffffffffffffff1673ffffffffffffffffffffffffffffffffffffffff16815260200190815260200160002060009054906101000a900460ff16905092915050565b600033905090565b6000815190506200021e8162000284565b92915050565b6000602082840312156200023757600080fd5b600062000247848285016200020d565b91505092915050565b60006200025d8262000264565b9050919050565b600073ffffffffffffffffffffffffffffffffffffffff82169050919050565b6200028f8162000250565b81146200029b57600080fd5b50565b61249980620002ae6000396000f3fe60806040526004361061014f5760003560e01c806368249dcb116100b65780639ec5a8941161006f5780639ec5a894146104c4578063a217fddf146104ef578063c42ef38c1461051a578063caa7262b14610545578063d547741f1461056e578063d7b50c831461059757610156565b806368249dcb1461038a57806385877fc6146103b557806391d14854146103f25780639852099c1461042f5780639ace38c21461045a5780639af1d35a1461049957610156565b806336d43c241161010857806336d43c241461027657806336efd16f146102a1578063374341ab146102de578063419759f514610309578063449757e914610334578063534844a21461035f57610156565b806301ffc9a714610158578063213eed9214610195578063248a9ca3146101be578063293217c9146101fb5780632f2ff15d1461022457806336568abe1461024d57610156565b3661015657005b005b34801561016457600080fd5b5061017f600480360381019061017a919061198b565b6105c0565b60405161018c9190611faf565b60405180910390f35b3480156101a157600080fd5b506101bc60048036038101906101b791906118c1565b61063a565b005b3480156101ca57600080fd5b506101e560048036038101906101e09190611926565b6108ec565b6040516101f29190611fca565b60405180910390f35b34801561020757600080fd5b50610222600480360381019061021d9190611ae0565b61090b565b005b34801561023057600080fd5b5061024b6004803603810190610246919061194f565b610933565b005b34801561025957600080fd5b50610274600480360381019061026f919061194f565b61095c565b005b34801561028257600080fd5b5061028b6109df565b6040516102989190612107565b60405180910390f35b3480156102ad57600080fd5b506102c860048036038101906102c39190611a06565b6109e5565b6040516102d59190612107565b60405180910390f35b3480156102ea57600080fd5b506102f3610c29565b6040516103009190611fca565b60405180910390f35b34801561031557600080fd5b5061031e610c4d565b60405161032b9190612107565b60405180910390f35b34801561034057600080fd5b50610349610c53565b6040516103569190612107565b60405180910390f35b34801561036b57600080fd5b50610374610c59565b6040516103819190612107565b60405180910390f35b34801561039657600080fd5b5061039f610c5f565b6040516103ac9190611efd565b60405180910390f35b3480156103c157600080fd5b506103dc60048036038101906103d79190611898565b610c85565b6040516103e99190612107565b60405180910390f35b3480156103fe57600080fd5b506104196004803603810190610414919061194f565b610c9d565b6040516104269190611faf565b60405180910390f35b34801561043b57600080fd5b50610444610d07565b6040516104519190612107565b60405180910390f35b34801561046657600080fd5b50610481600480360381019061047c91906119b4565b610d0d565b60405161049093929190611f78565b60405180910390f35b3480156104a557600080fd5b506104ae610d57565b6040516104bb9190612107565b60405180910390f35b3480156104d057600080fd5b506104d9610d5d565b6040516104e69190612107565b60405180910390f35b3480156104fb57600080fd5b50610504610d63565b6040516105119190611fca565b60405180910390f35b34801561052657600080fd5b5061052f610d6a565b60405161053c9190611fca565b60405180910390f35b34801561055157600080fd5b5061056c60048036038101906105679190611a42565b610d8e565b005b34801561057a57600080fd5b506105956004803603810190610590919061194f565b61111b565b005b3480156105a357600080fd5b506105be60048036038101906105b99190611a91565b611144565b005b60007f7965db0b000000000000000000000000000000000000000000000000000000007bffffffffffffffffffffffffffffffffffffffffffffffffffffffff1916827bffffffffffffffffffffffffffffffffffffffffffffffffffffffff1916148061063357506106328261123b565b5b9050919050565b6000801b61064f8161064a6112a5565b6112ad565b600073ffffffffffffffffffffffffffffffffffffffff168373ffffffffffffffffffffffffffffffffffffffff1614156106d0578173ffffffffffffffffffffffffffffffffffffffff166108fc479081150290604051600060405180830381858888f193505050501580156106ca573d6000803e3d6000fd5b506108e7565b600860009054906101000a900473ffffffffffffffffffffffffffffffffffffffff1673ffffffffffffffffffffffffffffffffffffffff168373ffffffffffffffffffffffffffffffffffffffff1614156107c95760008390508073ffffffffffffffffffffffffffffffffffffffff1663a9059cbb846005546040518363ffffffff1660e01b8152600401610768929190611f18565b602060405180830381600087803b15801561078257600080fd5b505af1158015610796573d6000803e3d6000fd5b505050506040513d601f19601f820116820180604052508101906107ba91906118fd565b506000600581905550506108e6565b60008390508073ffffffffffffffffffffffffffffffffffffffff1663a9059cbb848373ffffffffffffffffffffffffffffffffffffffff166370a08231306040518263ffffffff1660e01b81526004016108249190611efd565b60206040518083038186803b15801561083c57600080fd5b505afa158015610850573d6000803e3d6000fd5b505050506040513d601f19601f8201168201806040525081019061087491906119dd565b6040518363ffffffff1660e01b8152600401610891929190611f18565b602060405180830381600087803b1580156108ab57600080fd5b505af11580156108bf573d6000803e3d6000fd5b505050506040513d601f19601f820116820180604052508101906108e391906118fd565b50505b5b505050565b6000806000838152602001908152602001600020600101549050919050565b6000801b6109208161091b6112a5565b6112ad565b8260068190555081600781905550505050565b61093c826108ec565b61094d816109486112a5565b6112ad565b610957838361134a565b505050565b6109646112a5565b73ffffffffffffffffffffffffffffffffffffffff168173ffffffffffffffffffffffffffffffffffffffff16146109d1576040517f08c379a00000000000000000000000000000000000000000000000000000000081526004016109c8906120e7565b60405180910390fd5b6109db828261142a565b5050565b60025481565b6000600160008154809291906109fa90612350565b91905055506006548311610a43576040517f08c379a0000000000000000000000000000000000000000000000000000000008152600401610a3a90612087565b60405180910390fd5b6000600860009054906101000a900473ffffffffffffffffffffffffffffffffffffffff1690508073ffffffffffffffffffffffffffffffffffffffff166323b872dd3330876040518463ffffffff1660e01b8152600401610aa793929190611f41565b602060405180830381600087803b158015610ac157600080fd5b505af1158015610ad5573d6000803e3d6000fd5b505050506040513d601f19601f82011682018060405250810190610af991906118fd565b610b38576040517f08c379a0000000000000000000000000000000000000000000000000000000008152600401610b2f90612067565b60405180910390fd5b600154600a60003373ffffffffffffffffffffffffffffffffffffffff1673ffffffffffffffffffffffffffffffffffffffff1681526020019081526020016000208190555060065484610b8c91906121f9565b60036000828254610b9d9190612149565b9250508190555060065460056000828254610bb89190612149565b925050819055506001548373ffffffffffffffffffffffffffffffffffffffff167ffee46db5732247de632ce31f76565e75c254362d1b139866819d49a8c0d85ae160065487610c0891906121f9565b604051610c159190612107565b60405180910390a360015491505092915050565b7fe32b1f2a7463a6ec37c0c37a196e00d0872da4a394384c61ec297e22a8ee607781565b60035481565b60055481565b60045481565b600860009054906101000a900473ffffffffffffffffffffffffffffffffffffffff1681565b600a6020528060005260406000206000915090505481565b600080600084815260200190815260200160002060000160008373ffffffffffffffffffffffffffffffffffffffff1673ffffffffffffffffffffffffffffffffffffffff16815260200190815260200160002060009054906101000a900460ff16905092915050565b60015481565b60096020528060005260406000206000915090508060000160009054906101000a900473ffffffffffffffffffffffffffffffffffffffff16908060010154908060020154905083565b60065481565b60075481565b6000801b81565b7f76d12de99ad2ca162840505be9b657c2e7a650cc3ee0284048f3f9def3c1adf281565b7f76d12de99ad2ca162840505be9b657c2e7a650cc3ee0284048f3f9def3c1adf2610dc081610dbb6112a5565b6112ad565b6000600960008481526020019081526020016000206002015414610e19576040517f08c379a0000000000000000000000000000000000000000000000000000000008152600401610e1090612027565b60405180910390fd5b83600960008481526020019081526020016000206001015414610e71576040517f08c379a0000000000000000000000000000000000000000000000000000000008152600401610e6890612047565b60405180910390fd5b8273ffffffffffffffffffffffffffffffffffffffff166009600084815260200190815260200160002060000160009054906101000a900473ffffffffffffffffffffffffffffffffffffffff1673ffffffffffffffffffffffffffffffffffffffff1614610f15576040517f08c379a0000000000000000000000000000000000000000000000000000000008152600401610f0c906120c7565b60405180910390fd5b6000600860009054906101000a900473ffffffffffffffffffffffffffffffffffffffff1690508073ffffffffffffffffffffffffffffffffffffffff1663a9059cbb85876040518363ffffffff1660e01b8152600401610f77929190611f18565b602060405180830381600087803b158015610f9157600080fd5b505af1158015610fa5573d6000803e3d6000fd5b505050506040513d601f19601f82011682018060405250810190610fc991906118fd565b611008576040517f08c379a0000000000000000000000000000000000000000000000000000000008152600401610fff90612067565b60405180910390fd5b6000600754111561108a578373ffffffffffffffffffffffffffffffffffffffff166108fc6007549081150290604051600060405180830381858888f19350505050611089576040517f08c379a0000000000000000000000000000000000000000000000000000000008152600401611080906120a7565b60405180910390fd5b5b4360096000858152602001908152602001600020600201819055508260028190555084600460008282546110be9190612149565b92505081905550828473ffffffffffffffffffffffffffffffffffffffff167f9d9b80b7d6d8726032b314061d0ebe36168d57d395069aed82f7b613e074d2268760405161110c9190612107565b60405180910390a35050505050565b611124826108ec565b611135816111306112a5565b6112ad565b61113f838361142a565b505050565b7fe32b1f2a7463a6ec37c0c37a196e00d0872da4a394384c61ec297e22a8ee6077611176816111716112a5565b6112ad565b836009600084815260200190815260200160002060010181905550826009600084815260200190815260200160002060000160006101000a81548173ffffffffffffffffffffffffffffffffffffffff021916908373ffffffffffffffffffffffffffffffffffffffff160217905550818373ffffffffffffffffffffffffffffffffffffffff167f0c375276f11e0f75d38ab110b426e583b06504e73278953e2426f023ea7c60bb8660405161122d9190612107565b60405180910390a350505050565b60007f01ffc9a7000000000000000000000000000000000000000000000000000000007bffffffffffffffffffffffffffffffffffffffffffffffffffffffff1916827bffffffffffffffffffffffffffffffffffffffffffffffffffffffff1916149050919050565b600033905090565b6112b78282610c9d565b611346576112dc8173ffffffffffffffffffffffffffffffffffffffff16601461150b565b6112ea8360001c602061150b565b6040516020016112fb929190611ec3565b6040516020818303038152906040526040517f08c379a000000000000000000000000000000000000000000000000000000000815260040161133d9190611fe5565b60405180910390fd5b5050565b6113548282610c9d565b61142657600160008084815260200190815260200160002060000160008373ffffffffffffffffffffffffffffffffffffffff1673ffffffffffffffffffffffffffffffffffffffff16815260200190815260200160002060006101000a81548160ff0219169083151502179055506113cb6112a5565b73ffffffffffffffffffffffffffffffffffffffff168173ffffffffffffffffffffffffffffffffffffffff16837f2f8788117e7eff1d82e926ec794901d17c78024a50270940304540a733656f0d60405160405180910390a45b5050565b6114348282610c9d565b1561150757600080600084815260200190815260200160002060000160008373ffffffffffffffffffffffffffffffffffffffff1673ffffffffffffffffffffffffffffffffffffffff16815260200190815260200160002060006101000a81548160ff0219169083151502179055506114ac6112a5565b73ffffffffffffffffffffffffffffffffffffffff168173ffffffffffffffffffffffffffffffffffffffff16837ff6391f5c32d9c69d2a47ea670b442974b53935d1edc7fd64eb21e047a839171b60405160405180910390a45b5050565b60606000600283600261151e919061219f565b6115289190612149565b67ffffffffffffffff811115611567577f4e487b7100000000000000000000000000000000000000000000000000000000600052604160045260246000fd5b6040519080825280601f01601f1916602001820160405280156115995781602001600182028036833780820191505090505b5090507f3000000000000000000000000000000000000000000000000000000000000000816000815181106115f7577f4e487b7100000000000000000000000000000000000000000000000000000000600052603260045260246000fd5b60200101907effffffffffffffffffffffffffffffffffffffffffffffffffffffffffffff1916908160001a9053507f780000000000000000000000000000000000000000000000000000000000000081600181518110611681577f4e487b7100000000000000000000000000000000000000000000000000000000600052603260045260246000fd5b60200101907effffffffffffffffffffffffffffffffffffffffffffffffffffffffffffff1916908160001a905350600060018460026116c1919061219f565b6116cb9190612149565b90505b60018111156117b7577f3031323334353637383961626364656600000000000000000000000000000000600f861660108110611733577f4e487b7100000000000000000000000000000000000000000000000000000000600052603260045260246000fd5b1a60f81b828281518110611770577f4e487b7100000000000000000000000000000000000000000000000000000000600052603260045260246000fd5b60200101907effffffffffffffffffffffffffffffffffffffffffffffffffffffffffffff1916908160001a905350600485901c9450806117b090612326565b90506116ce565b50600084146117fb576040517f08c379a00000000000000000000000000000000000000000000000000000000081526004016117f290612007565b60405180910390fd5b8091505092915050565b600081359050611814816123d9565b92915050565b600081359050611829816123f0565b92915050565b60008151905061183e81612407565b92915050565b6000813590506118538161241e565b92915050565b60008135905061186881612435565b92915050565b60008135905061187d8161244c565b92915050565b6000815190506118928161244c565b92915050565b6000602082840312156118aa57600080fd5b60006118b884828501611805565b91505092915050565b600080604083850312156118d457600080fd5b60006118e285828601611805565b92505060206118f38582860161181a565b9150509250929050565b60006020828403121561190f57600080fd5b600061191d8482850161182f565b91505092915050565b60006020828403121561193857600080fd5b600061194684828501611844565b91505092915050565b6000806040838503121561196257600080fd5b600061197085828601611844565b925050602061198185828601611805565b9150509250929050565b60006020828403121561199d57600080fd5b60006119ab84828501611859565b91505092915050565b6000602082840312156119c657600080fd5b60006119d48482850161186e565b91505092915050565b6000602082840312156119ef57600080fd5b60006119fd84828501611883565b91505092915050565b60008060408385031215611a1957600080fd5b6000611a278582860161186e565b9250506020611a3885828601611805565b9150509250929050565b600080600060608486031215611a5757600080fd5b6000611a658682870161186e565b9350506020611a768682870161181a565b9250506040611a878682870161186e565b9150509250925092565b600080600060608486031215611aa657600080fd5b6000611ab48682870161186e565b9350506020611ac586828701611805565b9250506040611ad68682870161186e565b9150509250925092565b60008060408385031215611af357600080fd5b6000611b018582860161186e565b9250506020611b128582860161186e565b9150509250929050565b611b25816122bd565b82525050565b611b348161222d565b82525050565b611b4381612251565b82525050565b611b528161225d565b82525050565b6000611b6382612122565b611b6d818561212d565b9350611b7d8185602086016122f3565b611b86816123c8565b840191505092915050565b6000611b9c82612122565b611ba6818561213e565b9350611bb68185602086016122f3565b80840191505092915050565b6000611bcf60208361212d565b91507f537472696e67733a20686578206c656e67746820696e73756666696369656e746000830152602082019050919050565b6000611c0f60248361212d565b91507f54686973207472616e73616374696f6e20686173206265656e2070726f63657360008301527f7365642e000000000000000000000000000000000000000000000000000000006020830152604082019050919050565b6000611c75600d8361212d565b91507f57726f6e6720616d6f756e742e000000000000000000000000000000000000006000830152602082019050919050565b6000611cb560148361212d565b91507f4c6f7762207472616e73666572206661696c65640000000000000000000000006000830152602082019050919050565b6000611cf560258361212d565b91507f6465706f73697420616d6f756e742073686f756c6420636f766572207468652060008301527f666565732e0000000000000000000000000000000000000000000000000000006020830152604082019050919050565b6000611d5b60178361213e565b91507f416363657373436f6e74726f6c3a206163636f756e74200000000000000000006000830152601782019050919050565b6000611d9b601c8361212d565b91507f72657761726420746f6b656e207472616e73666572206661696c6564000000006000830152602082019050919050565b6000611ddb600f8361212d565b91507f57726f6e672072656365697665722e00000000000000000000000000000000006000830152602082019050919050565b6000611e1b60118361213e565b91507f206973206d697373696e6720726f6c65200000000000000000000000000000006000830152601182019050919050565b6000611e5b602f8361212d565b91507f416363657373436f6e74726f6c3a2063616e206f6e6c792072656e6f756e636560008301527f20726f6c657320666f722073656c6600000000000000000000000000000000006020830152604082019050919050565b611ebd816122b3565b82525050565b6000611ece82611d4e565b9150611eda8285611b91565b9150611ee582611e0e565b9150611ef18284611b91565b91508190509392505050565b6000602082019050611f126000830184611b2b565b92915050565b6000604082019050611f2d6000830185611b1c565b611f3a6020830184611eb4565b9392505050565b6000606082019050611f566000830186611b2b565b611f636020830185611b2b565b611f706040830184611eb4565b949350505050565b6000606082019050611f8d6000830186611b2b565b611f9a6020830185611eb4565b611fa76040830184611eb4565b949350505050565b6000602082019050611fc46000830184611b3a565b92915050565b6000602082019050611fdf6000830184611b49565b92915050565b60006020820190508181036000830152611fff8184611b58565b905092915050565b6000602082019050818103600083015261202081611bc2565b9050919050565b6000602082019050818103600083015261204081611c02565b9050919050565b6000602082019050818103600083015261206081611c68565b9050919050565b6000602082019050818103600083015261208081611ca8565b9050919050565b600060208201905081810360008301526120a081611ce8565b9050919050565b600060208201905081810360008301526120c081611d8e565b9050919050565b600060208201905081810360008301526120e081611dce565b9050919050565b6000602082019050818103600083015261210081611e4e565b9050919050565b600060208201905061211c6000830184611eb4565b92915050565b600081519050919050565b600082825260208201905092915050565b600081905092915050565b6000612154826122b3565b915061215f836122b3565b9250827fffffffffffffffffffffffffffffffffffffffffffffffffffffffffffffffff0382111561219457612193612399565b5b828201905092915050565b60006121aa826122b3565b91506121b5836122b3565b9250817fffffffffffffffffffffffffffffffffffffffffffffffffffffffffffffffff04831182151516156121ee576121ed612399565b5b828202905092915050565b6000612204826122b3565b915061220f836122b3565b92508282101561222257612221612399565b5b828203905092915050565b600061223882612293565b9050919050565b600061224a82612293565b9050919050565b60008115159050919050565b6000819050919050565b60007fffffffff0000000000000000000000000000000000000000000000000000000082169050919050565b600073ffffffffffffffffffffffffffffffffffffffff82169050919050565b6000819050919050565b60006122c8826122cf565b9050919050565b60006122da826122e1565b9050919050565b60006122ec82612293565b9050919050565b60005b838110156123115780820151818401526020810190506122f6565b83811115612320576000848401525b50505050565b6000612331826122b3565b9150600082141561234557612344612399565b5b600182039050919050565b600061235b826122b3565b91507fffffffffffffffffffffffffffffffffffffffffffffffffffffffffffffffff82141561238e5761238d612399565b5b600182019050919050565b7f4e487b7100000000000000000000000000000000000000000000000000000000600052601160045260246000fd5b6000601f19601f8301169050919050565b6123e28161222d565b81146123ed57600080fd5b50565b6123f98161223f565b811461240457600080fd5b50565b61241081612251565b811461241b57600080fd5b50565b6124278161225d565b811461243257600080fd5b50565b61243e81612267565b811461244957600080fd5b50565b612455816122b3565b811461246057600080fd5b5056fea264697066735822122014c9163f3760fa2ff014bb17066faff37d1c3016a9791014c5c4b6311cfac00464736f6c63430008000033",
  "immutableReferences": {},
  "source": "// contracts/LowbOracle.sol\r\n// SPDX-License-Identifier: MIT\r\npragma solidity ^0.8.0;\r\nimport \"@openzeppelin/contracts/access/AccessControl.sol\";\r\nimport \"@openzeppelin/contracts/token/ERC20/IERC20.sol\";\r\n\r\ncontract LowbOracle is AccessControl {\r\n  struct Transaction {\r\n    address receiver;\r\n    uint amount;\r\n    uint confirmedBlock;\r\n  }\r\n  bytes32 public constant SENDER_ROLE = keccak256(\"SENDER_ROLE\");\r\n  bytes32 public constant CHECKER_ROLE = keccak256(\"CHECKER_ROLE\");\r\n  uint256 public depositId;\r\n  uint256 public withdrawId;\r\n  uint256 public depositAmount;\r\n  uint256 public withdrawAmount;\r\n  uint256 public feesToWithdraw;\r\n  uint256 public fees;\r\n  uint256 public rewards;\r\n  address public lowbTokenAddress;\r\n  mapping(uint256=>Transaction) public transactions;\r\n  mapping(address=>uint256) public latestTransaction;\r\n  event DepositForEvent(uint256 amount, address indexed to, uint indexed id);\r\n  event ProcessWithdrawEvent(uint256 amount, address indexed to, uint indexed id);\r\n  event WithdrawToEvent(uint256 amount, address indexed to, uint indexed id);\r\n\r\n  constructor(address _lowbTokenAddress) {\r\n    lowbTokenAddress = _lowbTokenAddress;\r\n    _setupRole(DEFAULT_ADMIN_ROLE, msg.sender);\r\n  }\r\n\r\n  // Function to receive Ether. msg.data must be empty\r\n  receive() external payable {}\r\n\r\n  // Fallback function is called when msg.data is not empty\r\n  fallback() external payable {}\r\n\r\n  function depositFor(uint256 _amount, address _for) public returns (uint256) {\r\n    depositId++;\r\n    require(_amount > fees, \"deposit amount should cover the fees.\");\r\n    IERC20 token = IERC20(lowbTokenAddress);\r\n    require(token.transferFrom(msg.sender, address(this), _amount), \"Lowb transfer failed\");\r\n    latestTransaction[msg.sender] = depositId;\r\n    depositAmount += (_amount-fees);\r\n    feesToWithdraw += fees;\r\n    emit DepositForEvent(_amount-fees, _for, depositId);\r\n    return depositId;\r\n  }\r\n\r\n  function processWithdraw(uint256 _amount, address _to, uint256 _id) public onlyRole(CHECKER_ROLE) {\r\n    transactions[_id].amount = _amount;\r\n    transactions[_id].receiver = _to;\r\n    emit ProcessWithdrawEvent(_amount, _to, _id);\r\n  }\r\n\r\n  function withdrawTo(uint256 _amount, address payable _to, uint256 _id) public onlyRole(SENDER_ROLE) {\r\n    require(transactions[_id].confirmedBlock == 0, \"This transaction has been processed.\");\r\n    require(transactions[_id].amount == _amount, \"Wrong amount.\");\r\n    require(transactions[_id].receiver == _to, \"Wrong receiver.\");\r\n    IERC20 token = IERC20(lowbTokenAddress);\r\n    require(token.transfer(_to, _amount), \"Lowb transfer failed\");\r\n    if (rewards > 0) {\r\n      require(_to.send(rewards), \"reward token transfer failed\");\r\n    }\r\n    transactions[_id].confirmedBlock = block.number;\r\n    withdrawId = _id;\r\n    withdrawAmount += _amount;\r\n    emit WithdrawToEvent(_amount, _to, _id);\r\n  }\r\n\r\n  function setFeesAndRewards(uint256 _fees, uint256 _rewards) public onlyRole(DEFAULT_ADMIN_ROLE) {\r\n    fees = _fees;\r\n    rewards = _rewards;\r\n  }\r\n\r\n  function pullFunds(address _tokenAddress, address payable _to) public onlyRole(DEFAULT_ADMIN_ROLE) {\r\n    if (_tokenAddress == address(0)) {\r\n      _to.transfer(address(this).balance);\r\n    }\r\n    else if (_tokenAddress == lowbTokenAddress) {\r\n      IERC20 token = IERC20(_tokenAddress);\r\n      token.transfer(_to, feesToWithdraw);\r\n      feesToWithdraw = 0;\r\n    } \r\n    else {\r\n      IERC20 token = IERC20(_tokenAddress);\r\n      token.transfer(_to, token.balanceOf(address(this)));\r\n    }\r\n  }\r\n}\r\n",
  "sourcePath": "C:/Users/Weixuan/Documents/github/LowbOracle/contracts/LowbOracle.sol",
  "compiler": {
    "name": "solc",
    "version": "0.8.0+commit.c7dfd78e.Emscripten.clang"
  },
  "schemaVersion": "3.4.0",
  "updatedAt": "2021-08-08T04:31:01.882Z",
  "networkType": "ethereum",
  "devdoc": {
    "kind": "dev",
    "methods": {
      "getRoleAdmin(bytes32)": {
        "details": "Returns the admin role that controls `role`. See {grantRole} and {revokeRole}. To change a role's admin, use {_setRoleAdmin}."
      },
      "grantRole(bytes32,address)": {
        "details": "Grants `role` to `account`. If `account` had not been already granted `role`, emits a {RoleGranted} event. Requirements: - the caller must have ``role``'s admin role."
      },
      "hasRole(bytes32,address)": {
        "details": "Returns `true` if `account` has been granted `role`."
      },
      "renounceRole(bytes32,address)": {
        "details": "Revokes `role` from the calling account. Roles are often managed via {grantRole} and {revokeRole}: this function's purpose is to provide a mechanism for accounts to lose their privileges if they are compromised (such as when a trusted device is misplaced). If the calling account had been granted `role`, emits a {RoleRevoked} event. Requirements: - the caller must be `account`."
      },
      "revokeRole(bytes32,address)": {
        "details": "Revokes `role` from `account`. If `account` had been granted `role`, emits a {RoleRevoked} event. Requirements: - the caller must have ``role``'s admin role."
      },
      "supportsInterface(bytes4)": {
        "details": "See {IERC165-supportsInterface}."
      }
    },
    "version": 1
  },
  "userdoc": {
    "kind": "user",
    "methods": {},
    "version": 1
  }
}